:100000000C94B7010C94DF010C94DF010C94DF0118
:100010000C94DF010C94DF010C94DF010C94DF01E0
:100020000C94DF010C94DF010C9439130C94DF0164
:100030000C94DF010C94DF010C94DF010C94DF01C0
:100040000C94DF010C94DF010C94DF010C94DF01B0
:100050000C94DF010C94DF010C94DF010C94DF01A0
:100060000C94DF010C94DF010C94DF010C94DF0190
:100070000C94DF010C94DF010C94DF010C94DF0180
:100080000C94DF010C94DF010C94DF010C94DF0170
:100090000C94DF010C94DF010C94DF010C94DF0160
:1000A0000C94DF010C94DF010C94DF010C94DF0150
:1000B0000C94DF010C94DF010C94DF010C94DF0140
:1000C0000C94DF010C94DF010C94DF010C94DF0130
:1000D0000C94DF010C94DF010C94DF010C94DF0120
:1000E0000C94DF010C94DF010C94DF010C94DF0110
:1000F0000C94DF010C94DF010C94DF010C94DF0100
:100100000C94DF010C94DF010C94F8120C94DF01C5
:100110000C94DF010C94DF010C94DF010C94DF01DF
:100120000C94DF010C94DF010C94DF010C94DF01CF
:100130000C94DF010C94DF010C94DF010C94DF01BF
:100140000C94DF010C94DF010C94DF010C94DF01AF
:100150000C94DF010C94DF010C94DF010C94DF019F
:100160000C947B0A0C94DF010C94AA0A0C94540A98
:100170000C94DF010C94A00A0C94DF010C94DF01B5
:100180000C94DF010C94DF010C94DF010C94DF016F
:100190000C94DF010C94DF010C94DF010C94DF015F
:1001A0000C94DF010C94DF010C94DF010C94DF014F
:1001B0000C94DF010C94DF010C94DF010C94DF013F
:1001C0000C94DF010C94DF010C94DF010C94DF012F
:1001D0000C94DF010C94DF010C94DF010C94DF011F
:1001E0000C94DF010C94DF010C94DF010C94DF010F
:1001F0000C94DF010C94DF010C94DF01240E390E06
:10020000530E6D0E7F0E9D0EB40ECA0EDA0EEC0E5E
:10021000F011FF0E400F500FF01159107110F01136
:100220002C100E108910F70F6E616E00696E66005B
:100230004E414E494E495459494E46CDCCCC3D0ACB
:10024000D7233C17B7D13877CC2B329595E6241FAE
:10025000B14F0A000020410000C84200401C462067
:10026000BCBE4CCA1B0E5AAEC59D7400407A10F33A
:100270005A00A0724E18090010A5D4E80000E876D4
:1002800048170000E40B54020000CA9A3B0000002B
:10029000E1F505000080969800000040420F000044
:1002A00000A08601000000102700000000E8030005
:1002B0000000006400000000000A000000000001CF
:1002C00000000000002C76D888DC674F0823DFC1CF
:1002D000DFAE59E1B1B796E5E3E453C63AE651998A
:1002E0007696E8E6C28426EB898C9B62ED407C6FB3
:1002F000FCEFBC9C9F40F2BAA56FA5F490055A2A6A
:10030000F75C936B6CF9676DC11BFCE0E40D47FE75
:10031000F520E6B500D0ED902E030094357705006A
:1003200080841E080000204E0A000000C80C3333F1
:1003300033330F986E12831141EF8D2114893BE600
:100340005516CFFEE6DB18D1844B381BF77C1D9089
:100350001DA4BBE424203284725E228100C9F124F2
:10036000ECA1E53D2700D803F811DD031812112494
:100370001FBECFEFCDBFDFE2DEBF11E2A0E0B0E2F3
:10038000E0E3FDE302C005900D92A23DB107D9F76D
:1003900022E2A2EDB1E201C01D92A03BB207E1F75B
:1003A00011E0C5EBD1E004C02197FE010E947A174D
:1003B000C33BD107C9F70E94DB120C948B1E0C942F
:1003C000000025EE30E2FC01208331830E949A0573
:1003D0000895FF920F931F93CF93DF938C01EB014E
:1003E000F12C8F2D90E0FE0101900020E9F731976C
:1003F000EC1BFD0B8E179F0778F4DE01A80FB91FC9
:10040000F80180819181FC01208131816C91C801CA
:10041000F9010995F394E5CF81E0DF91CF911F9128
:100420000F91FF9008958F929F92AF92CF92EF928B
:10043000FF920F931F93CF93DF93CDB7DEB72A9729
:10044000CDBFDEBF4C0119821A82FE01339683E0D4
:10045000DF011D928A95E9F7F40194AD92FF07C080
:10046000FB0101900020E9F7E61BE35F06C0FB01FA
:1004700001900020E9F7E61BE75F31E08EEA820F8A
:10048000823008F030E0311106C081E0223709F0F7
:1004900080E0882331F0ED5F0983EA82CB82AC8271
:1004A0001D82DB018C9181118CE38401065F1F4F5B
:1004B0001F928F937F936F93BE016F5F7F4F7F93E8
:1004C0006F931F922F939401235C3F4F3F932F9381
:1004D0005F934F931F929F931F92EF938FEB90E246
:1004E0009F938F931F930F930E940D1D82ED91E2B6
:1004F0000E94F303B80182ED91E20E9408047E019C
:10050000B6E0EB0EF11CB70182ED91E20E942204ED
:10051000FF92EF921F930F9383ED90E29F938F933F
:100520001F930F930E940D1DB801C4010E94E901A1
:10053000CDBFDEBF2A96CDBFDEBFDF91CF911F9129
:100540000F91FF90EF90CF90AF909F908F90089574
:10055000AF92CF92EF920F93AC2CCE2CE02E022FC5
:1005600023E50E9413020F91EF90CF90AF90089572
:10057000AF92CF92EF920F930F2EF0E3AF2EF02DAC
:10058000C02EE22E042F23E5AB0169ED70E20E943C
:1005900013020F91EF90CF90AF900895AF92CF924A
:1005A000EF920F930F2EFDE2AF2EF02D0F2EFDE2F6
:1005B000CF2EF02D0F2EFDE2EF2EF02D0DE229E4CF
:1005C0000E9413020F91EF90CF90AF900895AF92D9
:1005D000CF92EF920F930F2EFDE2AF2EF02D0F2E44
:1005E000FDE2CF2EF02D0F2EFDE2EF2EF02D0DE2CD
:1005F00021E40E9413020F91EF90CF90AF900895E5
:10060000AF92CF92EF920F930F2EFDE2AF2EF02D0F
:100610000F2EFDE2CF2EF02D0F2EFDE2EF2EF02D4E
:100620000DE227E50E9413020F91EF90CF90AF905B
:100630000895AF92CF92EF920F93322FC11002C064
:1006400022E701C022E5DB01EC91EE2329F00F2E19
:10065000F4E5AF2EF02D04C00F2EFFE3AF2EF02DEA
:10066000CE2CE02E032F0E9413020F91EF90CF901B
:10067000AF900895CF92EF920F93CE2CE02E022FE1
:10068000242FAB0169ED70E20E9419030F91EF90E6
:10069000CF9008954F925F926F927F928F929F9228
:1006A000AF92BF92CF92DF92EF92FF920F931F9380
:1006B000CF93DF93CDB7DEB72F97CDBFDEBF3C0121
:1006C0002B01142FB22EFF92EF92DF92CF928AED80
:1006D00090E29F938F93CE0101964C019F938F934D
:1006E0000E940D1DCA2CE02E0B2D212FA201B4015A
:1006F000C3010E941903CDBFDEBF2F96CDBFDEBF61
:10070000DF91CF911F910F91FF90EF90DF90CF90ED
:10071000BF90AF909F908F907F906F905F904F9021
:1007200008954F925F926F927F928F929F92AF92B5
:10073000BF92CF92DF92EF92FF920F931F93CF93CE
:10074000DF93CDB7DEB76497CDBFDEBF3C012B0191
:10075000142FB22EFF92EF92DF92CF928EED90E2A5
:100760009F938F93CE0101964C019F938F930E948C
:100770000D1DCA2CE02E0B2D212FA201B401C301A7
:100780000E941903CDBFDEBF6496CDBFDEBFDF91EF
:10079000CF911F910F91FF90EF90DF90CF90BF907E
:1007A000AF909F908F907F906F905F904F90089543
:1007B00082ED91E20E94E503089582ED91E20E94AC
:1007C000F20308950E94AD040895E0EDF0E0DC012D
:1007D000ED93FC93119720E82083ED91FC9181E04B
:1007E000808308950895DC01ED91FC91119720E834
:1007F0002083ED91FC9181E080830895DC01ED91EF
:10080000FC9163830895DC01ED91FC91638308956D
:10081000CF93DF93EC01FB019081992341F0319656
:10082000A881B98113969C9391919111F9CFDF9191
:10083000CF910895DC01ED91FC912581848190E0B8
:10084000922B0895CF93DF93C62FD72F0E941A04BF
:100850009F938F9389EE90E29F938F93DF93CF9333
:100860000E940D1D0F900F900F900F900F900F9002
:10087000DF91CF910895EF92FF920F931F93CF9343
:10088000DF93CDB7DEB72597CDBFDEBFE62EF72EBF
:100890000E941A049F938F9389EE90E29F938F9307
:1008A0008E010F5F1F4F1F930F930E940D1DF801C4
:1008B000AE2DBF2DAE014B5F5F4F0F900F900F908D
:1008C0000F900F900F9081E021919D91291380E06E
:1008D000E417F507C9F72596CDBFDEBFDF91CF91AD
:1008E0001F910F91FF90EF9008950F931F93CF9357
:1008F000DF93EC018A01222379F0FB01215030E0E3
:100900002F5F3F4F620F731F9191A881B98113969A
:100910009C93E617F707C1F7CE010E941A04F8016D
:100920003496E80161E0229130E021543109AC01B4
:100930004F7055272417350709F060E0929582958E
:100940008F7089279F708927CE17DF0761F7862F61
:10095000DF91CF911F910F910895FC018281811148
:1009600008C0E0EBF9E0818185FFFDCF6093B0091D
:100970000895E0EAF9E0818185FFFDCF6093A00949
:1009800008950F931F93CF93DF93EB016881662344
:1009900069F08C012196D801ED91FC910190F081D4
:1009A000E02DC801099569916111F5CF81E0DF91D2
:1009B000CF911F910F910895FC018AE091E280830D
:1009C00091836283672BE9F4A0E6B6E080E8119694
:1009D0008C93119780E412968C9385E592E2848340
:1009E000958383E292E287839087A0EBB9E088E168
:1009F00014968C93149780E113968C9382E38383EF
:100A000013C082E292E28483958380EF91E2878330
:100A10009087A0EAB9E088E114968C93149780E15E
:100A200013968C9382E3838316820480F581E02DF4
:100A300010820895211570E8370771E5470771E0C6
:100A4000570709F442C068F42038F4E83F07FEE194
:100A50004F07510581F1211530444941514009F1B9
:100A600052C02115E8E43E07E8EE4E07E1E05E07DC
:100A700071F02115F0E83F07F2E34F07F2E05F075E
:100A8000C1F121153105424C5140E9F528C070E013
:100A9000FB01E95CFF4D2081FB01E05DFF4D3081F2
:100AA0003BC070E0FB01E55EFF4D2081FB01E7519B
:100AB000FE4D308131C070E0FB01E75DFF4D2081CC
:100AC000FB01EE5DFF4D308127C070E0FB01EC5E65
:100AD000FF4D2081FB01EE51FE4D30811DC070E0C5
:100AE000FB01E35FFF4D2081FB01E552FE4D3081AC
:100AF00013C070E0FB01EA5FFF4D2081FB01EC5267
:100B0000FE4D308109C070E0FB01E95CFF4D2081A2
:100B1000FB01E05DFF4D3081FC018281811105C048
:100B2000E0EBF9E0268337830895E0EAF9E02683D5
:100B3000378308950895CF93DF93EC01E881F9811D
:100B40000280F381E02D0995E881F9810280F3812B
:100B5000E02D6EEE70E2CE010995DF91CF91089500
:100B6000DC01ED91FC910280F381E02D6EEE70E2EC
:100B700009950895AF92BF92CF92DF92EF92FF92C4
:100B80000F931F93CF93DF93EC016A017B014F3FDB
:100B90002FEF52076207720709F44DC1CB01BA016A
:100BA00020E03AEC4AE95BE30E943917122FA32EAA
:100BB000B42E052F60E3620FE881F9810190F08186
:100BC000E02DCE010995212F3A2D4B2D502F60E0BD
:100BD0007AEC8AE99BE30E941517C61AD70AE80A3D
:100BE000F90AC701B60120E031EE45EF55E00E9459
:100BF0003917122FA32EB42E052F60E3620FE88160
:100C0000F9810190F081E02DCE010995212F3A2D37
:100C10004B2D502F60E071EE85EF95E00E94151787
:100C2000C61AD70AE80AF90AC701B60120E836E968
:100C300048E950E00E943917122FA32EB42E052F39
:100C400060E3620FE881F9810190F081E02DCE012F
:100C50000995212F3A2D4B2D502F60E876E988E930
:100C600090E00E941517C61AD70AE80AF90AC701C8
:100C7000B60120E432E44FE050E00E943917122F11
:100C8000A32EB42E052F60E3620FE881F981019055
:100C9000F081E02DCE010995212F3A2D4B2D502FBB
:100CA00060E472E48FE090E00E941517C61AD70A3C
:100CB000E80AF90AC701B60120EA36E841E050E047
:100CC0000E943917122FA32EB42E052F60E3620F56
:100CD000E881F9810190F081E02DCE010995212F65
:100CE0003A2D4B2D502F60EA76E881E090E00E948B
:100CF0001517C61AD70AE80AF90AC701B60120E192
:100D000037E240E050E00E943917122FA32EB42E94
:100D1000052F60E3620FE881F9810190F081E02DF9
:100D2000CE010995A0E1B7E2212F3A2D4B2D502F8E
:100D30000E948F17C61AD70AE80AF90AC701B60136
:100D400028EE33E040E050E00E943917122FA32E26
:100D5000B42E052F60E3620FE881F9810190F081E4
:100D6000E02DCE010995A8EEB3E0212F3A2D4B2DB1
:100D7000502F0E948F17C61AD70AE80AF90AC7012E
:100D8000B60124E630E040E050E00E943917122F0F
:100D9000A32EB42E052F60E3620FE881F981019044
:100DA000F081E02DCE010995A4E6B0E0212F3A2D87
:100DB0004B2D502F0E948F17C61AD70AE80AF90A3E
:100DC000C701B6012AE030E040E050E00E94391748
:100DD000122FA32EB42E052F60E3620FE881F98154
:100DE0000190F081E02DCE010995812F9A2DAB2D38
:100DF000B02F880F991FAA1FBB1FAC01BD01440F64
:100E0000551F661F771F440F551F661F771F840FDE
:100E1000951FA61FB71FA7019601281B390B4A0B68
:100E20005B0B60E3620FE881F9810190F081E02DB6
:100E3000CE01099508C0E881F9810280F381E02D97
:100E400061EF70E20995DF91CF911F910F91FF90B3
:100E5000EF90DF90CF90BF90AF900895AF92BF9288
:100E6000CF92DF92EF92FF920F931F93CF93DF9376
:100E7000EC016A017B01772344F4E881F981019058
:100E8000F081E02D6DE2099507C0E881F9810190BC
:100E9000F081E02D6BE20995E894F7F82FEFC21688
:100EA000D206E2062FE7F20609F44DC1C701B601EA
:100EB00020E03AEC4AE95BE30E945B17122FA32E75
:100EC000B42E052F60E3620FE881F9810190F08173
:100ED000E02DCE010995212F3A2D4B2D502F60E0AA
:100EE00076E385E694EC0E941517C60ED71EE81E21
:100EF000F91EC701B60120E031EE45EF55E00E9432
:100F00005B17122FA32EB42E052F60E3620FE8812A
:100F1000F9810190F081E02DCE010995212F3A2D24
:100F20004B2D502F60E07FE18AE09AEF0E94151769
:100F3000C60ED71EE81EF91EC701B60120E836E925
:100F400048E950E00E945B17122FA32EB42E052F04
:100F500060E3620FE881F9810190F081E02DCE011C
:100F60000995212F3A2D4B2D502F60E879E687E621
:100F70009FEF0E941517C60ED71EE81EF91EC70167
:100F8000B60120E432E44FE050E00E945B17122FDC
:100F9000A32EB42E052F60E3620FE881F981019042
:100FA000F081E02DCE010995212F3A2D4B2D502FA8
:100FB00060EC7DEB80EF9FEF0E941517C60ED71EE9
:100FC000E81EF91EC701B60120EA36E841E050E00C
:100FD0000E945B17122FA32EB42E052F60E3620F21
:100FE000E881F9810190F081E02DCE010995212F52
:100FF0003A2D4B2D502F60E679E78EEF9FEF0E9440
:101000001517C60ED71EE81EF91EC701B60120E14E
:1010100037E240E050E00E945B17122FA32EB42E5F
:10102000052F60E3620FE881F9810190F081E02DE6
:10103000CE010995A0EFB8ED212F3A2D4B2D502F61
:101040000E949D17C60ED71EE81EF91EC701B601E5
:1010500028EE33E040E050E00E945B17122FA32EF1
:10106000B42E052F60E3620FE881F9810190F081D1
:10107000E02DCE010995A8E1BCEF212F3A2D4B2D93
:10108000502F0E949D17C60ED71EE81EF91EC701DD
:10109000B60124E630E040E050E00E945B17122FDA
:1010A000A32EB42E052F60E3620FE881F981019031
:1010B000F081E02DCE010995ACE9BFEF212F3A2D4B
:1010C0004B2D502F0E949D17C60ED71EE81EF91EED
:1010D000C701B6012AE030E040E050E00E945B1713
:1010E000122FA32EB42E052F60E3620FE881F98141
:1010F0000190F081E02DCE010995812F9A2DAB2D25
:10110000B02F880F991FAA1FBB1FAC01BD01440F50
:10111000551F661F771F440F551F661F771F840FCB
:10112000951FA61FB71FA7019601281B390B4A0B55
:101130005B0B60E3620FE881F9810190F081E02DA3
:10114000CE01099509C0E881F9810280F381E02D83
:1011500061EF70E2CE010995DF91CF911F910F9160
:10116000FF90EF90DF90CF90BF90AF9008950895DB
:10117000CF92DF92EF92FF920F931F93CF93DF9363
:101180007C01062FC42ED22EC8E0D0E010E8802FBC
:10119000812351F4D701ED91FC910190F081E02D74
:1011A0006C2DC701099509C0D701ED91FC91019003
:1011B000F081E02D6D2DC70109951695219739F71E
:1011C000DF91CF911F910F91FF90EF90DF90CF9023
:1011D00008954F925F926F927F92AF92BF92CF929B
:1011E000DF92EF92FF920F931F93CF93DF935C01F7
:1011F0002A013B01122FC0E2D0E0C12CD12C760194
:101200006894F7F8D301C2018C219D21AE21BF2142
:10121000892B8A2B8B2B51F4D501ED91FC910190F8
:10122000F081E02D612FC501099509C0D501ED912F
:10123000FC910190F081E02D602FC5010995F69495
:10124000E794D794C7942197E9F6DF91CF911F9146
:101250000F91FF90EF90DF90CF90BF90AF907F9075
:101260006F905F904F9008952F923F924F925F92B0
:101270006F927F928F929F92AF92BF92CF92DF92A6
:10128000EF92FF920F931F93CF93DF93CDB7DEB70B
:10129000CD88DE880F89188D4E0189E1880E911C5A
:1012A0006894222424F80F2EF7E23F2EF02D01C07F
:1012B0008301D8016C91653271F0662309F492C004
:1012C0000F5F1F4FD601ED91FC910190F081E02D51
:1012D000C6010995EECF3801B2E06B0E711CF80122
:1012E00061816436A1F0683709F46FC0633629F470
:1012F000F4016081F2E08F0E911CD601ED91FC911A
:101300000190F081E02DC60109958301D2CFF4014F
:10131000E080F180B2E08B0E911CFF2064F4F19428
:10132000E194F108D601ED91FC910190F081E02D5E
:101330006DE2C6010995B0E1EB16B7E2FB06D8F401
:10134000022D132D03C0E016F106E8F49801ADEC70
:10135000BCEC0E9480178C01169507951695079591
:10136000169507950230110570F70F2EFAE0AF2E93
:10137000B12CF02D0DC00F2EFAE0AF2EB12CF02DB8
:10138000022D132D05C00F2EFAE0AF2EB12CF02D3B
:10139000C701B8010E942517482E592EDB01AB501A
:1013A000BF4DF60180819181FC01208131816C91DA
:1013B000C601F9010995E42CF52CC801B5010E947C
:1013C00025178B01672B21F773CFF401E080F180A3
:1013D000F2E08F0E911C6894AA24A4F8B12C00E1CD
:1013E00010E0D6CF80E0DF91CF911F910F91FF9059
:1013F000EF90DF90CF90BF90AF909F908F907F90B5
:101400006F905F904F903F902F9008957F936F93D0
:101410005F934F932EED30E23F932F939F938F93E3
:101420000E9434098DB79EB708968DBF9EBF089560
:10143000FC01A481B5819C918681981799F08681E1
:101440008F5F868396818381981301C0168286817F
:101450000780F085E02DE80FF11D8081FB0180837E
:1014600081E0089580E00895DC011496ED91FC91EF
:101470001597208116962C9308950F931F93CF9361
:10148000DF931F92CDB7DEB78C01BE016F5F7F4F38
:10149000C8010E94180A8823C1F389810F90DF9147
:1014A000CF911F910F9108951F920F920FB60F9237
:1014B00011248F939F93EF93FF938091B00988231A
:1014C00089F0909155229F5F9093552290915522DB
:1014D000923311F410925522E0915522F0E0ED5D27
:1014E000FD4D8083FF91EF919F918F910F900FBEE3
:1014F0000F901F9018951F920F920FB60F92112404
:101500008F939F93EF93FF939091A0098091222254
:101510008F5F8093222280912222823311F41092D5
:101520002222E0912222F0E0E051FE4D9083FF91D3
:10153000EF919F918F910F900FBE0F901F90189574
:101540001F920F920FB60F9211240F900FBE0F90A3
:101550001F9018951F920F920FB60F9211240F90A3
:101560000FBE0F901F90189520915600382F982F7E
:1015700090959223611101C030E0932B9093560017
:10158000813031F4E8E6F0E0808181608083089565
:10159000811105C0E0E6F0E08081816080830895DC
:1015A00081309105A1F18230910509F44AC0892B5F
:1015B00009F064C0E0E5F0E08BEC82838DE080838D
:1015C000818183FFFDCFE0E5F0E0818182FFFDCFE7
:1015D000CB0101970F9790F4606CE0E5F0E0658334
:1015E0008DE18083818184FFFDCF88ED84BF84E01D
:1015F000809340008CE180935000089588ED84BF73
:1016000083E0809340008CE080935000089585E053
:1016100080935000E0E5F0E0818180FFFDCFE0E5C0
:10162000F0E0818182FFFDCF88ED84BF1092400001
:10163000442321F12093540060E080E00E94B40A2A
:10164000089587E080935000E0E5F0E0818181FF1C
:10165000FDCFE0E5F0E0818182FFFDCF88ED84BF22
:1016600081E08093400086E080935000442331F075
:101670002093540060E080E00E94B40A0895CF9265
:10168000EF920F93362F6091B9207091BA20C12C40
:10169000E22E042F232F4CEA50E20E9419030F91EF
:1016A000EF90CF9008958F929F92AF92BF92CF927A
:1016B000DF92EF92FF920F931F93CF93DF931F92CE
:1016C000CDB7DEB74C01B62E142F022FBE016F5FCF
:1016D0007F4F80ED840F0E943512882371F0C980FE
:1016E000D12CE12CF12CAA24A394212F4B2D6CEAB0
:1016F00070E2C4010E944A0308C0E12C212F4B2D47
:101700006CEA70E2C4010E943A030F90DF91CF911E
:101710001F910F91FF90EF90DF90CF90BF90AF900F
:101720009F908F900895CF92DF92EF92FF920F9348
:101730001F93CF93DF936C01D62FC42FF22EF801A5
:10174000608180ED840F0E941D12882359F0EE24E1
:10175000E3940F2D2C2F4D2F6CEA70E2C6010E94EE
:101760003A0309C0E12C0F2D2C2F4D2F6CEA70E2AB
:10177000C6010E943A03DF91CF911F910F91FF9014
:10178000EF90DF90CF9008958F929F92AF92BF928B
:10179000CF92DF92EF92FF920F931F93CF93DF933D
:1017A000EC01B62E942E822E6EE071E2C8010E94EA
:1017B000A71C892B31F481E080936822AA24A3948A
:1017C00010C06DE171E2C8010E94A71C892B31F4A1
:1017D00082E080936822AA24A39403C01092682216
:1017E000A12CC0906822D12CE12CF12C082D292DA0
:1017F0004B2D6CEA70E2CE010E944A03DF91CF913B
:101800001F910F91FF90EF90DF90CF90BF90AF901E
:101810009F908F900895AF92CF92DF92EF92FF92B8
:101820000F93C0906822D12CE12CF12CAA24A39410
:10183000022F242F462F6CEA70E20E944A030F9178
:10184000FF90EF90DF90CF90AF900895AF92BF924E
:10185000CF92EF920F931F93CF93DF93CDB7DEB765
:101860006497CDBFDEBF5C01162F042FE22E60EA25
:1018700070E2CE0101960E94B01CCC24C394212FAB
:101880004CEA50E2BE016F5F7F4FC5010E94190311
:101890006496CDBFDEBFDF91CF911F910F91EF9086
:1018A000CF90BF90AF900895AF92BF92CF92EF923A
:1018B0000F931F93CF93DF93CDB7DEB76497CDBF60
:1018C000DEBF5C01162F042FE22E67E970E2CE0125
:1018D00001960E94B01CCC24C394212F4CEA50E204
:1018E000BE016F5F7F4FC5010E9419036496CDBF93
:1018F000DEBFDF91CF911F910F91EF90CF90BF90FE
:10190000AF900895AF92CF92DF92EF92FF920F9334
:10191000CF93DF9300D0CDB7DEB7E091AC22F0914A
:10192000AD22309711F4E0EBF2E2DE0111966D0189
:10193000CE1ADF0AE12CF12CAA24A394022F242F23
:10194000462F6CEA70E20E944A030F900F90DF91DD
:10195000CF910F91FF90EF90DF90CF90AF900895CF
:10196000F89460918B2070918C2080918D209091C3
:101970008E200E94D31760938720709388208093D5
:10198000892090938A2078940895833079F018F410
:10199000813028F40DC0863058F484E001C081E025
:1019A000869FC00111240E942B18089582E0F8CF71
:1019B0008FEFF6CF8091622290916322009741F0E1
:1019C0000E94C31810926222109263221092612228
:1019D00080915E2290915F22009741F00E94C3188F
:1019E00010925E2210925F2210925D220895CF9293
:1019F000EF920F931F93CF93DF939C0190916722F7
:101A00009E3009F0FBC090916522992309F4F6C03D
:101A1000D9018091A922811149C0292F30E021509C
:101A20003109F901EE0FFF1FEE0FFF1FEE0FFF1F31
:101A3000E21BF30BE65BFF4D428180916822841725
:101A4000D0F4F901EE0FFF1FEE0FFF1FEE0FFF1F87
:101A5000E21BF30BE65BFF4D6091B7207091B8205D
:101A6000C12CE1800091642220814CEA50E2CD013A
:101A70000E941903BBC0993008F0B8C000916222DF
:101A800010916322E901CC0FDD1FCC0FDD1FCC0FBD
:101A9000DD1FC21BD30BC65BDF4DED81FE812981AB
:101AA000409164226881CD010995A0C0892F90E002
:101AB0000197FC01EE0FFF1FE80FF91FEE0FFF1F4C
:101AC000EE0FFF1FE25CFF4D2681223009F442C079
:101AD00020F4213009F453C06BC02430F9F02530D4
:101AE00009F066C0FC01EE0FFF1FE80FF91FEE0FB3
:101AF000FF1FEE0FFF1FE25CFF4D0084F185E02D1C
:101B0000A0916222B09163228D919D910D90BC9124
:101B1000A02D80839183A283B3834AC0FC01EE0F82
:101B2000FF1FE80FF91FEE0FFF1FEE0FFF1FE25C14
:101B3000FF4D0084F185E02DA0916222B0916322D7
:101B40008D919D910D90BC91A02D80839183A28356
:101B5000B3832EC0FC01EE0FFF1FE80FF91FEE0F3D
:101B6000FF1FEE0FFF1FE25CFF4D0084F185E02DAB
:101B7000A0916222B09163228C91808319C0FC01F4
:101B8000EE0FFF1FDF01A80FB91FAA0FBB1FAA0F7F
:101B9000BB1FA25CBF4D17964C91179750E0609108
:101BA000622270916322FD01808591850E94B71C9D
:101BB0008091652290E00197FC01EE0FFF1FE80F76
:101BC000F91FEE0FFF1FEE0FFF1FE25CFF4D0284B7
:101BD000F385E02D309709F009952FEF8DEE92E017
:101BE000215080409040E1F700C000000E94DA0CD4
:101BF000109267221092662210926522DF91CF9197
:101C00001F910F91EF90CF900895EF92FF920F9355
:101C10001F93CF93DF931F92CDB7DEB78C01BE0128
:101C20006F5F7F4F0E94180A882309F4D9C3E0919F
:101C300067228E2F90E08631910508F0D1C3FC0118
:101C4000E250FF4F0C947A178981833209F0C8C3A0
:101C500010925B2282ED91E20E94F3031092A9227E
:101C6000698182ED91E20E94030481E08093672202
:101C7000B7C31981E12EF12CC7010E94671C892B83
:101C800079F01A3320F0C7010E947C1C8983698196
:101C900082ED91E20E94030482E080936722A0C358
:101CA000109267229DC31981E12EF12CC7010E9479
:101CB000671C892B79F01A3320F0C7010E947C1C25
:101CC0008983698182ED91E20E94030483E080931D
:101CD000672286C31092672283C3698162FF08C0AE
:101CE00083E08093822082ED91E20E94030403C08E
:101CF00082E08093822084E08093672271C3809188
:101D00008220833029F4698182ED91E20E940304EC
:101D10008981E091BD20F091BE209081981304C08C
:101D200085E0809367225CC3823421F486E080934F
:101D3000672256C31092672253C3E091BD20F091F1
:101D4000BE206181898168130CC08091822083301C
:101D500021F482ED91E20E94030487E080936722E0
:101D60003FC3109267223CC38981823581F4809100
:101D70008220833029F462E582ED91E20E9403041F
:101D800087E08093672281E08093A92229C3109283
:101D9000672226C380918220833029F4698182EDF5
:101DA00091E20E94030489818093AC2088E08093B3
:101DB000672216C380918220833029F4698182EDE5
:101DC00091E20E940304ECEAF0E2898181831282AD
:101DD00089E08093672204C38981833569F4809107
:101DE0008220833029F463E582ED91E20E940304AE
:101DF0008BE080936722F4C210926722F1C28CE0DC
:101E0000809367228091A922811114C0EAE4F0E254
:101E10002BE730E2108189811813D1C28091822092
:101E2000833059F5612F82ED91E20E94030425C0B1
:101E300010E023C0198191E020913E208091AC20D8
:101E4000281390E081E020914120211380E0892334
:101E500099F081E020913F209091AD20291380E0FE
:101E6000882351F080918220833039F4612F82EDF4
:101E700091E20E94030401C010E010936622B0C2F8
:101E80008DE0809367226981609364228091822033
:101E9000833009F0A5C282ED91E20E940304A0C242
:101EA00085E1809367228091A922811117C0EAE41D
:101EB000F0E281E0F12C20819091662229138CC2FE
:101EC00061819981691382C2F82E809182208330CA
:101ED00061F582ED91E20E94030427C090914120B8
:101EE00080916622981325C09091422080916422AF
:101EF00098131FC090913E208091AC20981319C078
:101F000090913F208091AD20981313C060914320A1
:101F1000898168130EC080918220833009F043C20A
:101F200082ED91E20E9403043EC2F0926522F1101C
:101F300009C010925C2210926622109265221092C3
:101F400067224EC28091A922811111C08F2D90E08D
:101F50000197FC01EE0FFF1FEE0FFF1FEE0FFF1F9B
:101F6000E81BF90BE65BFF4DF380E48014C08F2D76
:101F700090E00197FC01EE0FFF1FDF01A80FB91FD2
:101F8000AA0FBB1FAA0FBB1FA25CBF4D1696FC90E9
:101F90001697FD01E780FF2011F16E2D8F2D0E9415
:101FA000C50C8093622290936322892B39F44CE212
:101FB00051E26FE271E2C8010E94CE02E09261221A
:101FC00021E0F21641F064E181E00E94C50C8093AB
:101FD0005E2290935F2283E18093672203C085E1B4
:101FE000809367221092602210925D22F9C189814C
:101FF0008F3389F480918220833049F46FE382ED3E
:1020000091E20E94030482E180936722E9C18FE09C
:1020100080936722E5C110926722E2C16981962F01
:102020009F7D81E0943509F080E0811106C081E058
:10203000663409F080E0882361F08091822083304B
:1020400021F482ED91E20E94030484E180936722EF
:10205000C7C110926722C4C11981812F90E00E94EC
:10206000671C892BF9F080915B22E82FF0E0EA5A97
:10207000FD4D10838F5F80935B22843008F4B0C1E4
:1020800081E08093822066E572E282ED91E20E9417
:102090003B04813019F081E0809365228FE08093CA
:1020A00067229EC110926722109265220E94DA0C6C
:1020B00097C1998181E09D3009F080E0811106C0CF
:1020C00081E09A3009F080E0882321F080E180935C
:1020D000672286C110926722109265220E94DA0C54
:1020E0007FC1998181E09D3009F080E0811106C0B7
:1020F00081E09A3009F080E0882321F08EE080931F
:1021000067226EC110926722109265220E94DA0C3B
:1021100067C180918220833029F4698182ED91E248
:102120000E9403048091A922811112C0809165222E
:1021300090E00197FC01EE0FFF1FEE0FFF1FEE0F67
:10214000FF1FE81BF90BE65BFF4D2381348115C0AF
:102150008091652290E00197FC01EE0FFF1FDF01E7
:10216000A80FB91FAA0FBB1FAA0FBB1FA25CBF4DB0
:1021700016962C911697FD0137812130B9F52981EA
:102180002C33A9F480918220833021F482E1809362
:10219000672203C08FE08093672280916022E091E4
:1021A0006222F0916322E80FF11D108219C1309173
:1021B0006022432F50E08091612290E002974817FF
:1021C00059076CF4E0916222F0916322E30FF11D54
:1021D0002083809160228F5F8093602201C11092E2
:1021E0006722109266220E94DA0CFAC08981982F29
:1021F0009F7E9C3209F0BDC01092AA221092AB22A1
:1022000080915D22E0915E22F0915F22E80FF11D46
:10221000108280916022831708F07DC0233041F145
:1022200018F4223041F079C0243009F442C025303E
:1022300009F459C072C0009162221091632240E0FB
:1022400050E060E070E080915E2290915F220E94F9
:102250009A1A6F3F71058105910511F008F05FC072
:1022600020916022F801E20FF11D608330E05AC036
:10227000009162221091632240E050E060E070E043
:1022800080915E2290915F220E949A1A61157105D9
:10229000E1E08E07910508F044C020916022E02F14
:1022A000F12FE20FF11DE20FF11D6083718330E029
:1022B00039C00091622210916322F4E08F9F000DDB
:1022C000111D112440E050E060E070E080915E223A
:1022D00090915F220E949A1AF80160837183828331
:1022E000938330E01FC00091622210916322F4E0DA
:1022F0008F9F000D111D112460E070E080915E221F
:1023000090915F220E944C19F8016083718382834F
:10231000938330E007C032E005C030E003C032E014
:1023200001C032E020916022422F50E08091612272
:1023300090E00197481759072CF42F5F20936022F3
:1023400010925D228091AA229091AB22892B89F56F
:1023500089818C33F9F401C032E08091822083308E
:1023600021F482E18093672215C08FE08093672279
:1023700011C090915D22923178F4E0915E22F0914B
:102380005F22E90FF11D808380915D228F5F809332
:102390005D2226C0332321F110926622109267221B
:1023A0000E94DA0C1DC081E080936522FF24F39423
:1023B000C9CD89818C3381F7CFCF37962BCD2E179E
:1023C0003F07D9F735CD37968F5F75CD8830D9F770
:1023D000ACCD37968F5F6FCD883009F4A6CDF9CF9D
:1023E0000F90DF91CF911F910F91FF90EF90089583
:1023F000CF93DF93C091BD20D091BE2060E070E00C
:1024000089E692E20E94DC04E9E6F2E285EE90E2DF
:102410008083918384E484AF81E0818742E050E04F
:10242000BE0186EA92E20E94B71CDF91CF91089527
:1024300089E692E20E94E10108958430A0F46130BF
:1024400049F4E82FF0E0ED57FF4D80818093460678
:1024500081E00895E82FF0E0ED57FF4D80818093F3
:10246000450681E0089580E008958430B0F44091FD
:1024700008064F7021E030E0F90102C0EE0FFF1FA7
:102480008A95E2F7CF01842321F481E0FB01808368
:102490000895FB01108281E0089580E00895E82FFF
:1024A000EF70F0E0EE53FE4D208190E1299F900106
:1024B0001124E82FF0E0F595E795F595E795F5956A
:1024C000E795F595E795EE53FE4D8081822B0895B3
:1024D00023E841E060E070E082E090E00E94D00AF2
:1024E00090EF909301068FEF809321068093410631
:1024F0008093610620E42093620680938106909386
:1025000005068093450683E0809309068FE080935B
:102510000A0688ED809310068093110680931206B8
:102520008093130624E090E1E4E0F6E0892F8095A3
:102530008F6080833FEF43EC89E031504040804022
:10254000E1F700C00000990F215081F780EF8093E0
:10255000040624E091E0E4E4F6E0892F8095806FA2
:1025600080833FEF43EC89E0315040408040E1F709
:1025700000C00000990F215081F78FEF809344062F
:10258000809108060E944F12807F8093040687E0A6
:102590008093A200789420E038E448EE51E066E0B1
:1025A00089E692E20E941A056CEA71E289E692E2FB
:1025B0000E949B0508950E9468120F2EF4E7CF2E0B
:1025C000F02D0F2EFAE6EF2EF02D01E626E64CE276
:1025D00051E26FEB71E289E692E20E94A80289E67D
:1025E00092E20E94050E89E692E20E94F70CF7CF74
:1025F0001F920F920FB60F9211242F933F934F9378
:102600005F936F937F938F939F93AF93BF93EF935A
:10261000FF93809108060E944F12807F80930406EA
:10262000FF91EF91BF91AF919F918F917F916F91AA
:102630005F914F913F912F910F900FBE0F901F9080
:1026400018958FE080934300E0E0F4E0818180FD05
:10265000FDCFE0E0F4E08BE690E082879387108680
:1026600011861486158687E0808382E08283089530
:1026700008951F920F920FB60F9211242F933F933C
:102680004F935F936F937F938F939F93AF93BF937A
:10269000EF93FF9380918F208130B1F160F183300F
:1026A000A9F58091932090919420892BE1F4809159
:1026B0009020811109C0EFE8F0E282819381848348
:1026C000958383E0808303C082E080938F20809194
:1026D000952090919620892B31F0E0919520F091F2
:1026E000962083E00995EFE8F0E2848195810197D7
:1026F000848395830BC0EFE8F0E282819381848329
:10270000958383E0808302C010928F20FF91EF9128
:10271000BF91AF919F918F917F916F915F914F91F9
:102720003F912F910F900FBE0F901F901895089515
:10273000A0E1B0E0EEE9F3E10C94A2177C011B01EB
:102740006A01FC0116821782838181FF44C39E01C6
:102750002F5F3F4F3901F7019381F10193FD85917F
:1027600093FF81911F01882309F431C3853239F425
:1027700093FD859193FF81911F01853239F4B70153
:1027800090E00E94D11C56016501E5CF10E0512C6C
:10279000912CFFE1F915D8F08B3279F038F48032C2
:1027A00079F08332A1F4F92DF0612EC08D3261F001
:1027B000803369F4292D21602DC0392D3260932E8C
:1027C000892D8460982E2AC0E92DE86015C097FCF9
:1027D0002DC020ED280F2A3088F496FE06C03AE07E
:1027E000139F200D1124122F19C08AE0589E200D2E
:1027F0001124522EE92DE0629E2E10C08E3231F44B
:1028000096FCE5C2F92DF0649F2E08C08C3621F4A9
:10281000292D2068922E02C0883641F4F10193FDE3
:10282000859193FF81911F018111B3CF9BEB980F8D
:10283000933020F4992D9061805E07C09BE9980F3A
:10284000933008F066C1992D9F7E96FF16E09F7326
:10285000992E853619F49064992E08C0863621F495
:10286000392F3068932E02C01111115097FE07C006
:102870001C3350F444244394410E27E00BC018301D
:1028800038F027E017E005C027E09CE3492E02C09E
:10289000212F412C560184E0A80EB11CF601608165
:1028A000718182819381042DA3010E948F1B6C0191
:1028B000F981FC87F0FF02C0F3FF06C091FC06C05F
:1028C00092FE06C000E205C00DE203C00BE201C0AB
:1028D00000E08C858C7019F001115AC29BC297FEE2
:1028E00010C04C0CFC85F4FF04C08A81813309F4CC
:1028F0004A94141474F528E0241578F588E0482EDD
:102900002CC096FC2AC0812F90E08C159D059CF070
:102910003CEFC3163FEFD30674F0892D8068982EE4
:102920000AC0E2E0F0E0EC0FFD1FE10FF11D808135
:10293000803319F411501111F4CF97FE0EC04424C6
:102940004394410E812F90E0C816D9062CF41C192F
:1029500004C04424439401C010E097FE06C01C1438
:102960001D0434F4C601019605C085E090E002C064
:1029700081E090E001110196112331F0212F30E028
:102980002F5F3F4F820F931F252D30E08217930753
:1029900014F4581A01C0512C892D897049F455201E
:1029A00039F0B70180E290E00E94D11C5A94F7CF31
:1029B000002329F0B701802F90E00E94D11C93FCE6
:1029C00009C0552039F0B70180E390E00E94D11C86
:1029D0005A94F7CF97FE4CC04601D7FE02C0812C17
:1029E000912CC60188199909F301E80FF91FED87A9
:1029F000FE879601241931092F87388B012F10E0AB
:102A00001195019511093FEF8316930629F4B7013B
:102A10008EE290E00E94D11CC814D9044CF08F853E
:102A200098898815990524F4ED85FE85818101C07A
:102A300080E3F1E08F1A91082D853E852F5F3F4F8F
:102A40002D873E87801691062CF0B70190E00E94FA
:102A5000D11CD9CFC814D90441F49A81963320F4FB
:102A6000953319F43C8534FF81E3B70190E04EC003
:102A70008A81813319F09C859F7E9C87B70190E005
:102A80000E94D11C111105C094FC18C085E690E08D
:102A900017C0B7018EE290E00E94D11C1E5F82E059
:102AA00001E0080FF301E80FF11D8081B70190E00C
:102AB0000E94D11C802F0113F3CFE6CF85E490E074
:102AC000B7010E94D11CD7FC06C0C114D10441F447
:102AD000EC85E4FF05C0D194C194D1088DE201C01A
:102AE0008BE2B70190E00E94D11C80E32AE0C2167D
:102AF000D1042CF08F5FFAE0CF1AD108F7CFB701DD
:102B000090E00E94D11CB701C601C0960E94D11C62
:102B100054C1833631F0833779F0833509F056C0DC
:102B200020C0560132E0A30EB11CF60180818983DA
:102B300001E010E0630112C05601F2E0AF0EB11CDB
:102B4000F601C080D18096FE03C0612F70E002C004
:102B50006FEF7FEFC6010E94C61C8C01F92DFF7735
:102B600014C0560122E0A20EB11CF601C080D18033
:102B700096FE03C0612F70E002C06FEF7FEFC601C9
:102B80000E949C1C8C01F92DF0689F2EF3FD1AC049
:102B9000852D90E008171907A8F4B70180E290E0AE
:102BA0000E94D11C5A94F4CFF60197FC859197FEB0
:102BB00081916F01B70190E00E94D11C51105A948D
:102BC000015011090115110579F7F7C0843611F08C
:102BD000893661F5560197FE09C024E0A20EB11CAA
:102BE000F60160817181828193810AC0F2E0AF0EAB
:102BF000B11CF60160817181072E000C880B990BC6
:102C0000F92DFF769F2E97FF09C0909580957095BE
:102C100061957F4F8F4F9F4FF0689F2E2AE030E0E5
:102C2000A3010E942F1DC82EC6183FC0092D85374D
:102C300021F40F7E2AE030E01DC0097F8F3691F02D
:102C400018F4883559F0C3C0803719F0883711F06F
:102C5000BEC0006104FF09C0046007C094FE08C044
:102C6000066006C028E030E005C020E130E002C088
:102C700020E132E0560107FF09C084E0A80EB11C34
:102C8000F601608171818281938108C0F2E0AF0E0C
:102C9000B11CF6016081718180E090E0A3010E9487
:102CA0002F1DC82EC6180F77902E96FE0BC0092D2B
:102CB0000E7FC11650F494FE0AC092FC08C0092D84
:102CC0000E7E05C0DC2C092D03C0DC2C01C0D12EEA
:102CD00004FF0DC0FE01EC0DF11D8081803311F465
:102CE000097E09C002FF06C0D394D39404C0802F8C
:102CF000867809F0D39403FD11C000FF06C01C2D97
:102D0000D51480F4150D1D190DC0D51458F4B70154
:102D100080E290E00E94D11CD394F7CFD51410F438
:102D20005D1801C0512C04FF10C0B70180E390E092
:102D30000E94D11C02FF17C001FD03C088E790E08C
:102D400002C088E590E0B7010CC0802F867859F06A
:102D500001FF02C08BE201C080E207FD8DE2B701F6
:102D600090E00E94D11CC11638F4B70180E390E0D6
:102D70000E94D11C1150F7CFCA94F301EC0DF11D44
:102D80008081B70190E00E94D11CC110F5CF15C021
:102D9000F4E0F51560F584E0581A93FE1FC00111A8
:102DA00027C02C8523FF2AC008E212E0392D30719C
:102DB000932EF8018491811124C0552009F4E4CCAC
:102DC000B70180E290E00E94D11C5A94F6CFF7013F
:102DD0008681978126C08FEF9FEF23C0B70180E2E5
:102DE00090E00E94D11C5A945110F8CFD8CF512CAA
:102DF000B701802F90E00E94D11CD3CF0CE212E0EB
:102E0000D5CF91108052B70190E00E94D11C0F5F86
:102E10001F4FCFCF23E0251510F483E0BDCF512CF9
:102E2000C0CF6096E2E10C94BB17DB018F939F93B8
:102E30000E948F17BF91AF91A29F800D911DA39FFC
:102E4000900DB29F900D11240895AA1BBB1B51E158
:102E500007C0AA1FBB1FA617B70710F0A61BB70B0A
:102E6000881F991F5A95A9F780959095BC01CD01AF
:102E70000895A1E21A2EAA1BBB1BFD010DC0AA1FBB
:102E8000BB1FEE1FFF1FA217B307E407F50720F0D3
:102E9000A21BB30BE40BF50B661F771F881F991F4E
:102EA0001A9469F760957095809590959B01AC0197
:102EB000BD01CF010895052E97FB1EF400940E94DA
:102EC000721757FD07D00E94391707FC03D04EF444
:102ED0000C94721750954095309521953F4F4F4F68
:102EE0005F4F089590958095709561957F4F8F4FB6
:102EF0009F4F0895EE0FFF1F0590F491E02D099468
:102F0000A29FB001B39FC001A39F700D811D11242A
:102F1000911DB29F700D811D1124911D08950E9475
:102F20008017A59F900DB49F900DA49F800D911DBB
:102F300011240895B7FF0C948F170E948F17821BDE
:102F4000930B08952F923F924F925F926F927F92D0
:102F50008F929F92AF92BF92CF92DF92EF92FF92A9
:102F60000F931F93CF93DF93CDB7DEB7CA1BDB0B55
:102F7000CDBFDEBF09942A88398848885F846E8473
:102F80007D848C849B84AA84B984C884DF80EE808D
:102F9000FD800C811B81AA81B981CE0FD11DCDBFCF
:102FA000DEBFED0108950E940A1888F09F5798F03F
:102FB000B92F9927B751B0F0E1F0660F771F881F3E
:102FC000991F1AF0BA95C9F714C0B13091F00E9458
:102FD0002418B1E008950C942418672F782F8827BF
:102FE000B85F39F0B93FCCF3869577956795B3957F
:102FF000D9F73EF490958095709561957F4F8F4FEE
:103000009F4F089557FD9058440F551F59F05F3F4B
:1030100071F04795880F97FB991F61F09F3F79F0FA
:1030200087950895121613061406551FF2CF46957C
:10303000F1DF08C0161617061806991FF1CF8695FE
:103040007105610508940895E894BB2766277727E2
:10305000CB0197F908950F931F93CF93DF9382309D
:10306000910510F482E090E0E091AE22F091AF2261
:1030700020E030E0A0E0B0E0309719F140815181CC
:103080000281138148175907C8F08417950769F41E
:10309000109731F012960C93129713961C9327C039
:1030A0000093AE221093AF2222C02115310519F0F2
:1030B0004217530718F49A01BD01EF01DF01F8012F
:1030C000DBCF21153105F9F0281B390B24303105F0
:1030D00080F48A819B816115710521F0FB01828357
:1030E000938304C08093AE229093AF22FE01329668
:1030F00044C0FE01E20FF31F8193919322503109E6
:10310000288339833AC02091AC223091AD22232B01
:1031100041F420910220309103202093AC2230937F
:10312000AD2220910020309101202115310541F47C
:103130002DB73EB74091042050910520241B350B3C
:10314000E091AC22F091AD22E217F307A0F42E1B20
:103150003F0B2817390778F0AC014E5F5F4F2417FB
:10316000350748F04E0F5F1F4093AC225093AD22BD
:103170008193919302C0E0E0F0E0CF01DF91CF9125
:103180001F910F910895CF93DF93009709F481C0A9
:10319000FC01329712821382A091AE22B091AF222D
:1031A000109781F420813181820F931F2091AC22EE
:1031B0003091AD222817390751F5E093AC22F093F6
:1031C000AD2267C0ED0120E030E0CE17DF0740F40C
:1031D0004A815B819E0141155105F1F0EA01F5CF6D
:1031E000C283D38340815181840F951FC817D907AB
:1031F00059F488819981840F951F02968083918369
:103200008A819B81828393832115310529F4E09380
:10321000AE22F093AF223DC0E901EA83FB834991DE
:103220005991C40FD51FEC17FD0761F4808191817E
:10323000840F951F0296E901888399838281938187
:103240008A839B83E0E0F0E012968D919C91139726
:10325000009719F0FD01DC01F7CF8D919C9111973A
:103260009D012E5F3F4F820F931F2091AC22309122
:10327000AD222817390769F4309729F41092AE224D
:103280001092AF2202C012821382A093AC22B0939C
:10329000AD22DF91CF910895A0E0B0E0E2E5F9E141
:1032A0000C94A817EC016B016115710519F0FB0175
:1032B000808391837E01FFEFEF1AFF0A0881802F40
:1032C00090E00E94731C892B11F0E701F3CF0D32BF
:1032D00039F47E0182E0E80EF11C098111E008C09A
:1032E0000B3229F47E0192E0E90EF11C098110E015
:1032F000E701219743E050E068E372E0CE010E94CD
:10330000841C892BC1F4239645E050E063E372E00E
:10331000CE010E94841C892B09F42596C114D10486
:1033200019F0F601C083D1831111F6C060E070E09E
:1033300080E89FE7FAC043E050E060E372E0CE012E
:103340000E94841C892B59F4C114D10409F4E9C0EA
:10335000F2E0EF0EF11CF601E082F182E2C020E023
:1033600030E0A901C0E0D0E0F70180EDA82EA00E6A
:1033700089E08A1530F1912F9260B92E812F8870E3
:1033800012FF04C0811124C0219622C0811121970F
:10339000A5E0B0E00E948F17DC01CB01880F991FD8
:1033A000AA1FBB1F9C01AD012A0D311D411D511DDE
:1033B000283989E93807480789E1580748F0166035
:1033C00006C09EEFA9120AC013FD40C01860B12EBE
:1033D0008FEFE81AF80A00811B2DC6CF802F8F7D52
:1033E0008534A1F580818D3211F4106106C08B32D5
:1033F00021F0319661E070E004C08181329662E094
:1034000070E080538A3018F0E61BF70B1FC060E0B5
:1034100070E060389CE079075CF4DB01AA0FBB1F09
:10342000AA0FBB1F6A0F7B1F660F771F680F711DE6
:103430003196DF0111978C9180538A3050F314FF3D
:1034400003C0719561957109C60FD71F11FF08C0A0
:10345000C114D10429F0CF010197F6018083918333
:10346000CA01B9010E94921D212F2370233019F047
:103470004B015C0106C04B015C01B7FAB094B7F890
:10348000B09420E030E0A901C501B4010E948D1D77
:10349000882309F43EC0D7FF06C0D195C195D10954
:1034A0000FE412E002C007E612E06801F8E1CF1A6B
:1034B000D10890E2E92EF12CCE15DF0574F0F80169
:1034C0002591359145915491C501B4010E94F31D98
:1034D0004B015C01CE19DF09EFCF04501109F594BF
:1034E000E7940C151D0541F78A2D880F8B2D881F39
:1034F0008F3F49F020E030E0A901C501B4010E94EE
:103500008D1D811106C082E290E08093AA229093E3
:10351000AB22C501B40109C060E070E080E89FEF14
:1035200004C060E070E080EC9FE7CDB7DEB7ECE070
:103530000C94C117A0E0B0E0E0EAFAE10C94A31704
:103540005C016B017A016115710519F0FB01808343
:103550009183E114F10429F0C7010297839708F0E1
:10356000C9C0E5012196F5011081812F90E00E94EC
:10357000731C892B11F05E01F4CF1D3229F42196C2
:10358000F501118101E007C01B3221F4E50122960B
:10359000F501118100E0E114F104B1F0F0E1EF1662
:1035A000F10429F4B0C010E3E114F10401F12AE0C0
:1035B000E216F104B1F180E1E816F10471F0E8E0FF
:1035C000EE16F104F1F413C0103341F588818F7DBC
:1035D000883549F7198122960260F0E1EF2EF12C2F
:1035E00088248A94982CA82CAFE0BA2E20C078E0CA
:1035F000E72EF12C88248A94982CA82CEFE1BE2E7B
:1036000016C06FEF7FEFCB0197010F2C000C440B1E
:10361000550B0E94391749015A0109C08AE0E82E6A
:10362000F12C69E9862E982CA82C69E1B62E40E091
:1036300060E070E0CB0127010F2C000C66087708D2
:10364000FE0150ED352E310E29E0231570F42FEBDD
:10365000210F2A3118F439EC332E06C02FE9210F3F
:103660002A3130F529EA322E310E232D30E02E1585
:103670003F05F4F44F3FC9F086169706A806B90631
:1036800088F0A30192010E941517232D30E040E03D
:1036900050E0620F731F841F951F62177307840722
:1036A000950710F44FEF01C041E021961081C8CF7B
:1036B000C114D10451F0442311F0219703C001FF3C
:1036C00004C02297F601C083D18300FF07C0909504
:1036D0008095709561957F4F8F4F9F4F4F3F79F445
:1036E00082E290E08093AA229093AB223FEF2FEFEB
:1036F0009FEF0DC040E030E020E090E008C0462F92
:10370000372F282F04C0103309F067CF5FCF642F05
:10371000732F822FCDB7DEB7E1E10C94BC172830B0
:1037200008F027E03327DA01990F311D87FD9160FA
:1037300000966105710539F432602E5F3D9330E3E8
:103740002A95E1F708959F3F30F0803871056105B3
:1037500009F03C5F3C5F3D93913008F08068911D1B
:10376000DF93CF931F930F93FF92EF92192F987FC0
:103770009695E92F96959695E90FFF27EB53FD4F08
:1037800099273327EE24FF24A701E7010590089429
:10379000079428F4360FE71EF81E491F511D660FC7
:1037A000771F881F991F0694A1F70590079428F4A6
:1037B000E70EF81E491F561FC11D770F881F991F5E
:1037C000661F0694A1F70590079428F4F80E491F88
:1037D000561FC71FD11D880F991F661F771F06949C
:1037E000A1F70590079420F4490F561FC71FD81F53
:1037F000990F661F771F881F0694A9F7849110956B
:10380000177041F0D695C79557954795F794E7946B
:103810001A95C1F7EBE6F2E0689415901591359191
:103820006591959105907FE27395E118F10A430B3C
:10383000560BC90BD009C0F7E10CF11E431F561FF0
:10384000C91FD01D7EF4703311F48A95E6CFE89439
:10385000015030F0080F0AF40027021708F4202F57
:103860002395022F7A3328F079E37D932A95E9F79F
:1038700010C07D932A9589F606949795679537959C
:1038800017951794E118F10A430B560BC90BD00991
:1038900098F023957E9173957A3308F070E37C93CA
:1038A0002013B8F77E9170617D9330F0839571E3BA
:1038B0007D9370E32A95E1F71124EF90FF900F912B
:1038C0001F91CF91DF91992787FD909508959111D0
:1038D0000C94601E80538A5028F0865C806281566A
:1038E0008650B0F7089591110C94601E803219F043
:1038F00089508550C8F708959111089581548A51CF
:1039000008F4805E855A0895FB01DC014150504067
:1039100088F08D9181341CF08B350CF4805E6591BC
:1039200061341CF06B350CF4605E861B611171F321
:10393000990B0895881BFCCFFC01059061507040E5
:103940000110D8F7809590958E0F9F1F0895FB0169
:10395000DC018D91019080190110D9F3990B089524
:10396000FB01DC0101900D920020E1F70895FB01BD
:10397000DC014150504048F001900D920020C9F701
:1039800001C01D9241505040E0F70895FC01615084
:10399000704001900110D8F7809590958E0F9F1F71
:1039A00008950F931F93CF93DF93FB01238121FD94
:1039B00003C08FEF9FEF2CC022FF16C046815781B6
:1039C000248135814217530744F4A081B1819D01C0
:1039D0002F5F3F4F208331838C93268137812F5F68
:1039E0003F4F2683378314C08B01EC01FB01008419
:1039F000F185E02D0995892BE1F6D80116968D9178
:103A00009C911797019616968D939C931797CE01CC
:103A1000DF91CF911F910F910895AEE0B0E0E3E107
:103A2000FDE10C94B0170D891E8986E08C83098313
:103A30001A838FEF9FE78D839E83AE01475E5F4FB2
:103A40006F89788DCE0101960E949813EF81F885D9
:103A5000E00FF11F10822E96E4E00C94C917FA01D2
:103A6000AA27283051F1203181F1E8946F936E7FBD
:103A70006E5F7F4F8F4F9F4FAF4FB1E03ED0B4E0AE
:103A80003CD0670F781F891F9A1FA11D680F791FEF
:103A90008A1F911DA11D6A0F711D811D911DA11D00
:103AA00020D009F468943F912AE0269F1124301910
:103AB000305D3193DEF6CF010895462F4770405DAB
:103AC0004193B3E00FD0C9F7F6CF462F4F70405D5A
:103AD0004A3318F0495D31FD4052419302D0A9F7B5
:103AE000EACFB4E0A6959795879577956795BA95AF
:103AF000C9F700976105710508959B01AC010A2E75
:103B000006945795479537952795BA95C9F7620F4B
:103B1000731F841F951FA01D08950E94CF1D08F4D8
:103B200081E00895E89409C097FB3EF49095809554
:103B3000709561957F4F8F4F9F4F9923A9F0F92F73
:103B400096E9BB279395F695879577956795B795F1
:103B5000F111F8CFFAF4BB0F11F460FF1BC06F5FD7
:103B60007F4F8F4F9F4F16C0882311F096E911C0E9
:103B7000772321F09EE8872F762F05C0662371F00A
:103B800096E8862F70E060E02AF09A95660F771F1E
:103B9000881FDAF7880F9695879597F90895990FFA
:103BA0000008550FAA0BE0E8FEEF16161706E80707
:103BB000F907C0F012161306E407F50798F0621B28
:103BC000730B840B950B39F40A2661F0232B242BFD
:103BD000252B21F408950A2609F4A140A6958FEF1C
:103BE000811D811D08950E94061E0C947A1E0E945C
:103BF0006C1E38F00E94731E20F0952311F00C9477
:103C0000631E0C94691E11240C9425180E9402183E
:103C100070F3959FC1F3950F50E0551F629FF0011F
:103C2000729FBB27F00DB11D639FAA27F00DB11D38
:103C3000AA1F649F6627B00DA11D661F829F2227C1
:103C4000B00DA11D621F739FB00DA11D621F839F48
:103C5000A00D611D221F749F3327A00D611D231F1E
:103C6000849F600D211D822F762F6A2F11249F576C
:103C700050409AF0F1F088234AF0EE0FFF1FBB1F6F
:103C8000661F771F881F91505040A9F79E3F51052E
:103C900080F00C94631E0C9425185F3FE4F3983E6B
:103CA000D4F3869577956795B795F795E7959F5FD8
:103CB000C1F7FE2B880F911D9695879597F908956A
:103CC00099278827089597F99F6780E870E060E05A
:103CD00008959FEF80EC089500240A9416161706A5
:103CE00018060906089500240A94121613061406ED
:103CF00005060895092E0394000C11F4882352F050
:103D0000BB0F40F4BF2B11F460FF04C06F5F7F4F07
:103D10008F4F9F4F089511E0C5EBD1E004C0FE0125
:103D20000E947A172196C73BD107C9F7F894FFCFB5
:103D30000000B0222000EE764E3A261C12BF5F3FF4
:103D40002F1F170F8F472F2317110B773B271D139B
:103D50000E099692B091A0D09003C16B214B050B38
:103D6000CCBCC4ACB49CA4FEE547C537851744540D
:103D70000074317305018B20B00C2D2D0000003F25
:103D80000B534B000110C40B536B0000000B0C498C
:103D900067000000530B5153000201930B53430281
:103DA0000000260C5354020000540C536D01000017
:103DB000820C021824428180DB1A5C6C74844E00F1
:103DC0000032000000971331393A33333A3333006D
:103DD0004A616E20203220323032300045310040BE
:103DE000214E215E216A217A218E219821A9212349
:103DF0002530327825632573257325632573257354
:103E0000256300257325730D0A00256C7500256652
:103E10000000000000E203C10425303478000A0DE0
:103E2000004572720030313233343536373839411B
:103E300042434445460000000000AD04C104506800
:103E4000653625216B64663F2B32615100443D2667
:103E50003237616E6525323464657A004252002142
:103E6000212121214572726F7221212121212100FE
:103E70006D656D6F7279206572726F72730070611B
:103E800072616D65746572206572726F7200756E15
:103E90006B6E6F776E206A6F62006E6F2074726156
:103EA0006E736D697373696F6E00636F6D6D616EB4
:103EB00064206E6F7420616C6C6F77656400435290
:103EC00043206572726F72006E6F20616374697651
:103ED000652073656E736F720049310048616C6CC8
:103EE0006F20766F6D20494F2D426F617264006DB7
:103EF00065000008040C020A060E0109050D030BFB
:023F0000070FA9
:00000001FF
